{
  "_format": "hh-sol-artifact-1",
  "contractName": "Create",
  "sourceName": "contracts/Contract.sol",
  "abi": [
    {
      "inputs": [],
      "stateMutability": "nonpayable",
      "type": "constructor"
    },
    {
      "anonymous": false,
      "inputs": [
        {
          "indexed": true,
          "internalType": "uint256",
          "name": "candidateId",
          "type": "uint256"
        },
        {
          "indexed": false,
          "internalType": "string",
          "name": "age",
          "type": "string"
        },
        {
          "indexed": false,
          "internalType": "string",
          "name": "name",
          "type": "string"
        },
        {
          "indexed": false,
          "internalType": "string",
          "name": "image",
          "type": "string"
        },
        {
          "indexed": false,
          "internalType": "uint256",
          "name": "voteCount",
          "type": "uint256"
        },
        {
          "indexed": false,
          "internalType": "address",
          "name": "_address",
          "type": "address"
        },
        {
          "indexed": false,
          "internalType": "string",
          "name": "ipfs",
          "type": "string"
        }
      ],
      "name": "CandidateCreate",
      "type": "event"
    },
    {
      "anonymous": false,
      "inputs": [
        {
          "indexed": true,
          "internalType": "uint256",
          "name": "voter_voterId",
          "type": "uint256"
        },
        {
          "indexed": false,
          "internalType": "string",
          "name": "voter_name",
          "type": "string"
        },
        {
          "indexed": false,
          "internalType": "string",
          "name": "voter_image",
          "type": "string"
        },
        {
          "indexed": false,
          "internalType": "address",
          "name": "voter_address",
          "type": "address"
        },
        {
          "indexed": false,
          "internalType": "uint256",
          "name": "voter_allowed",
          "type": "uint256"
        },
        {
          "indexed": false,
          "internalType": "bool",
          "name": "voter_voted",
          "type": "bool"
        },
        {
          "indexed": false,
          "internalType": "uint256",
          "name": "voter_vote",
          "type": "uint256"
        },
        {
          "indexed": false,
          "internalType": "string",
          "name": "voter_ipfs",
          "type": "string"
        }
      ],
      "name": "VoterCreated",
      "type": "event"
    },
    {
      "inputs": [],
      "name": "_candidateId",
      "outputs": [
        {
          "internalType": "uint256",
          "name": "_value",
          "type": "uint256"
        }
      ],
      "stateMutability": "view",
      "type": "function"
    },
    {
      "inputs": [],
      "name": "_voterId",
      "outputs": [
        {
          "internalType": "uint256",
          "name": "_value",
          "type": "uint256"
        }
      ],
      "stateMutability": "view",
      "type": "function"
    },
    {
      "inputs": [
        {
          "internalType": "uint256",
          "name": "",
          "type": "uint256"
        }
      ],
      "name": "candidateAddress",
      "outputs": [
        {
          "internalType": "address",
          "name": "",
          "type": "address"
        }
      ],
      "stateMutability": "view",
      "type": "function"
    },
    {
      "inputs": [
        {
          "internalType": "address",
          "name": "",
          "type": "address"
        }
      ],
      "name": "candidates",
      "outputs": [
        {
          "internalType": "uint256",
          "name": "candidateId",
          "type": "uint256"
        },
        {
          "internalType": "string",
          "name": "age",
          "type": "string"
        },
        {
          "internalType": "string",
          "name": "name",
          "type": "string"
        },
        {
          "internalType": "string",
          "name": "image",
          "type": "string"
        },
        {
          "internalType": "uint256",
          "name": "voteCount",
          "type": "uint256"
        },
        {
          "internalType": "address",
          "name": "_address",
          "type": "address"
        },
        {
          "internalType": "string",
          "name": "ipfs",
          "type": "string"
        }
      ],
      "stateMutability": "view",
      "type": "function"
    },
    {
      "inputs": [],
      "name": "getCandidate",
      "outputs": [
        {
          "internalType": "address[]",
          "name": "",
          "type": "address[]"
        }
      ],
      "stateMutability": "view",
      "type": "function"
    },
    {
      "inputs": [
        {
          "internalType": "address",
          "name": "_address",
          "type": "address"
        }
      ],
      "name": "getCandidateData",
      "outputs": [
        {
          "internalType": "string",
          "name": "",
          "type": "string"
        },
        {
          "internalType": "string",
          "name": "",
          "type": "string"
        },
        {
          "internalType": "uint256",
          "name": "",
          "type": "uint256"
        },
        {
          "internalType": "string",
          "name": "",
          "type": "string"
        },
        {
          "internalType": "uint256",
          "name": "",
          "type": "uint256"
        },
        {
          "internalType": "string",
          "name": "",
          "type": "string"
        },
        {
          "internalType": "address",
          "name": "",
          "type": "address"
        }
      ],
      "stateMutability": "view",
      "type": "function"
    },
    {
      "inputs": [],
      "name": "getCandidateLength",
      "outputs": [
        {
          "internalType": "uint256",
          "name": "",
          "type": "uint256"
        }
      ],
      "stateMutability": "view",
      "type": "function"
    },
    {
      "inputs": [],
      "name": "getVotedVotersList",
      "outputs": [
        {
          "internalType": "address[]",
          "name": "",
          "type": "address[]"
        }
      ],
      "stateMutability": "view",
      "type": "function"
    },
    {
      "inputs": [
        {
          "internalType": "address",
          "name": "_address",
          "type": "address"
        }
      ],
      "name": "getVoterData",
      "outputs": [
        {
          "internalType": "uint256",
          "name": "",
          "type": "uint256"
        },
        {
          "internalType": "string",
          "name": "",
          "type": "string"
        },
        {
          "internalType": "string",
          "name": "",
          "type": "string"
        },
        {
          "internalType": "address",
          "name": "",
          "type": "address"
        },
        {
          "internalType": "string",
          "name": "",
          "type": "string"
        },
        {
          "internalType": "uint256",
          "name": "",
          "type": "uint256"
        },
        {
          "internalType": "bool",
          "name": "",
          "type": "bool"
        }
      ],
      "stateMutability": "view",
      "type": "function"
    },
    {
      "inputs": [],
      "name": "getVoterLength",
      "outputs": [
        {
          "internalType": "uint256",
          "name": "",
          "type": "uint256"
        }
      ],
      "stateMutability": "view",
      "type": "function"
    },
    {
      "inputs": [],
      "name": "getVoterList",
      "outputs": [
        {
          "internalType": "address[]",
          "name": "",
          "type": "address[]"
        }
      ],
      "stateMutability": "view",
      "type": "function"
    },
    {
      "inputs": [
        {
          "internalType": "address",
          "name": "_address",
          "type": "address"
        },
        {
          "internalType": "string",
          "name": "_age",
          "type": "string"
        },
        {
          "internalType": "string",
          "name": "_name",
          "type": "string"
        },
        {
          "internalType": "string",
          "name": "_image",
          "type": "string"
        },
        {
          "internalType": "string",
          "name": "_ipfs",
          "type": "string"
        }
      ],
      "name": "setCandidate",
      "outputs": [],
      "stateMutability": "nonpayable",
      "type": "function"
    },
    {
      "inputs": [
        {
          "internalType": "address",
          "name": "_candidateAddress",
          "type": "address"
        },
        {
          "internalType": "uint256",
          "name": "_candidateVoteId",
          "type": "uint256"
        }
      ],
      "name": "vote",
      "outputs": [],
      "stateMutability": "nonpayable",
      "type": "function"
    },
    {
      "inputs": [
        {
          "internalType": "uint256",
          "name": "",
          "type": "uint256"
        }
      ],
      "name": "votedVoters",
      "outputs": [
        {
          "internalType": "address",
          "name": "",
          "type": "address"
        }
      ],
      "stateMutability": "view",
      "type": "function"
    },
    {
      "inputs": [
        {
          "internalType": "address",
          "name": "_address",
          "type": "address"
        },
        {
          "internalType": "string",
          "name": "_name",
          "type": "string"
        },
        {
          "internalType": "string",
          "name": "_image",
          "type": "string"
        },
        {
          "internalType": "string",
          "name": "_ipfs",
          "type": "string"
        }
      ],
      "name": "voterRight",
      "outputs": [],
      "stateMutability": "nonpayable",
      "type": "function"
    },
    {
      "inputs": [
        {
          "internalType": "address",
          "name": "",
          "type": "address"
        }
      ],
      "name": "voters",
      "outputs": [
        {
          "internalType": "uint256",
          "name": "voter_voterId",
          "type": "uint256"
        },
        {
          "internalType": "string",
          "name": "voter_name",
          "type": "string"
        },
        {
          "internalType": "string",
          "name": "voter_image",
          "type": "string"
        },
        {
          "internalType": "address",
          "name": "voter_address",
          "type": "address"
        },
        {
          "internalType": "uint256",
          "name": "voter_allowed",
          "type": "uint256"
        },
        {
          "internalType": "bool",
          "name": "voter_voted",
          "type": "bool"
        },
        {
          "internalType": "uint256",
          "name": "voter_vote",
          "type": "uint256"
        },
        {
          "internalType": "string",
          "name": "voter_ipfs",
          "type": "string"
        }
      ],
      "stateMutability": "view",
      "type": "function"
    },
    {
      "inputs": [
        {
          "internalType": "uint256",
          "name": "",
          "type": "uint256"
        }
      ],
      "name": "votersAddress",
      "outputs": [
        {
          "internalType": "address",
          "name": "",
          "type": "address"
        }
      ],
      "stateMutability": "view",
      "type": "function"
    },
    {
      "inputs": [],
      "name": "votingOrganizer",
      "outputs": [
        {
          "internalType": "address",
          "name": "",
          "type": "address"
        }
      ],
      "stateMutability": "view",
      "type": "function"
    }
  ],
  "bytecode": "0x608060405234801561001057600080fd5b50600280546001600160a01b0319163317905561197d806100326000396000f3fe608060405234801561001057600080fd5b50600436106101165760003560e01c80637831ffb3116100a2578063a738896711610071578063a738896714610274578063b28d92ae1461027e578063b9be315214610286578063c91ec71214610290578063f7522a83146102a357600080fd5b80637831ffb3146101ee5780638ab66a90146102015780638fb4cd8014610227578063a3ec138d1461024d57600080fd5b80633a88251a116100e95780633a88251a1461018257806343242daa146101ad5780635cc48aa7146101c05780635f74bbde146101d357806370218b85146101e657600080fd5b80630361419e1461011b57806305ad45a41461013057806313182dce146101475780632a466ac71461015c575b600080fd5b61012e610129366004611355565b6102ab565b005b6006545b6040519081526020015b60405180910390f35b61014f610486565b60405161013e91906113ee565b61016f61016a36600461143b565b6104e8565b60405161013e97969594939291906114aa565b610195610190366004611520565b61077b565b6040516001600160a01b03909116815260200161013e565b6101956101bb366004611520565b6107a5565b600254610195906001600160a01b031681565b61012e6101e1366004611539565b6107b5565b61014f6108f3565b6101956101fc366004611520565b610953565b61021461020f36600461143b565b610963565b60405161013e9796959493929190611563565b61023a61023536600461143b565b610bcc565b60405161013e97969594939291906115da565b61026061025b36600461143b565b610de2565b60405161013e989796959493929190611644565b6001546101349081565b61014f610fce565b6000546101349081565b61012e61029e3660046116ba565b61102e565b600354610134565b6002546001600160a01b031633146103265760405162461bcd60e51b815260206004820152603360248201527f596f752068617665206e6f20726967687420746f2070726f7669646520617574604482015272686f72697a6174696f6e20666f7220766f746560681b60648201526084015b60405180910390fd5b610334600080546001019055565b600080546001600160a01b03861682526007602052604090912060048101541561035d57600080fd5b60016004820181905585516103799183019060208801906111fd565b50835161038f90600283019060208701906111fd565b506003810180546001600160a01b0319166001600160a01b0388161790558181556103e8600682015560058101805460ff1916905582516103d990600783019060208601906111fd565b506006805460018101825560008290527ff652222313e28459528d920b65115c16c04f3efc82aaedc97be59f3f377c0d3f0180546001600160a01b0319166001600160a01b0389161790558154600483015460058401549284015460405192937ff5f39971dd62d9929e3a9feaa6bb77fe7c7da0001babff8a65a7e51ad0201c1993610476938b938b938e9360ff909116919060078b0190611853565b60405180910390a2505050505050565b606060058054806020026020016040519081016040528092919081815260200182805480156104de57602002820191906000526020600020905b81546001600160a01b031681526001909101906020018083116104c0575b5050505050905090565b6001600160a01b0380821660009081526004602081905260408220805491810154600582015460018301805460609788979688968896889688969560028401956003850194600601921690879061053e90611778565b80601f016020809104026020016040519081016040528092919081815260200182805461056a90611778565b80156105b75780601f1061058c576101008083540402835291602001916105b7565b820191906000526020600020905b81548152906001019060200180831161059a57829003601f168201915b505050505096508580546105ca90611778565b80601f01602080910402602001604051908101604052809291908181526020018280546105f690611778565b80156106435780601f1061061857610100808354040283529160200191610643565b820191906000526020600020905b81548152906001019060200180831161062657829003601f168201915b5050505050955083805461065690611778565b80601f016020809104026020016040519081016040528092919081815260200182805461068290611778565b80156106cf5780601f106106a4576101008083540402835291602001916106cf565b820191906000526020600020905b8154815290600101906020018083116106b257829003601f168201915b505050505093508180546106e290611778565b80601f016020809104026020016040519081016040528092919081815260200182805461070e90611778565b801561075b5780601f106107305761010080835404028352916020019161075b565b820191906000526020600020905b81548152906001019060200180831161073e57829003601f168201915b505050505091509650965096509650965096509650919395979092949650565b6003818154811061078b57600080fd5b6000918252602090912001546001600160a01b0316905081565b6006818154811061078b57600080fd5b336000908152600760205260409020600581015460ff16156108125760405162461bcd60e51b8152602060048201526016602482015275165bdd481a185d9948185b1c9958591e481d9bdd195960521b604482015260640161031d565b60048101546108635760405162461bcd60e51b815260206004820152601960248201527f596f752068617665206e6f20726967687420746f20766f746500000000000000604482015260640161031d565b6005808201805460ff191660019081179091556006830184905581549081019091557f036b6384b5eca791c62761152d0c79bb0604c104a5fb6f4eb0703f3154bb3db00180546001600160a01b031916331790556004808201546001600160a01b03851660009081526020839052604081209092018054919290916108e99084906118b1565b9091555050505050565b606060038054806020026020016040519081016040528092919081815260200182805480156104de576020028201919060005260206000209081546001600160a01b031681526001909101906020018083116104c0575050505050905090565b6005818154811061078b57600080fd5b6004602052600090815260409020805460018201805491929161098590611778565b80601f01602080910402602001604051908101604052809291908181526020018280546109b190611778565b80156109fe5780601f106109d3576101008083540402835291602001916109fe565b820191906000526020600020905b8154815290600101906020018083116109e157829003601f168201915b505050505090806002018054610a1390611778565b80601f0160208091040260200160405190810160405280929190818152602001828054610a3f90611778565b8015610a8c5780601f10610a6157610100808354040283529160200191610a8c565b820191906000526020600020905b815481529060010190602001808311610a6f57829003601f168201915b505050505090806003018054610aa190611778565b80601f0160208091040260200160405190810160405280929190818152602001828054610acd90611778565b8015610b1a5780601f10610aef57610100808354040283529160200191610b1a565b820191906000526020600020905b815481529060010190602001808311610afd57829003601f168201915b5050505060048301546005840154600685018054949592946001600160a01b03909216935090610b4990611778565b80601f0160208091040260200160405190810160405280929190818152602001828054610b7590611778565b8015610bc25780601f10610b9757610100808354040283529160200191610bc2565b820191906000526020600020905b815481529060010190602001808311610ba557829003601f168201915b5050505050905087565b6001600160a01b03808216600090815260076020819052604082208054600382015460048301546005840154600185018054979860609889988b988a988a9889989197600284019691909116949290930192909160ff909116908690610c3190611778565b80601f0160208091040260200160405190810160405280929190818152602001828054610c5d90611778565b8015610caa5780601f10610c7f57610100808354040283529160200191610caa565b820191906000526020600020905b815481529060010190602001808311610c8d57829003601f168201915b50505050509550848054610cbd90611778565b80601f0160208091040260200160405190810160405280929190818152602001828054610ce990611778565b8015610d365780601f10610d0b57610100808354040283529160200191610d36565b820191906000526020600020905b815481529060010190602001808311610d1957829003601f168201915b50505050509450828054610d4990611778565b80601f0160208091040260200160405190810160405280929190818152602001828054610d7590611778565b8015610dc25780601f10610d9757610100808354040283529160200191610dc2565b820191906000526020600020905b815481529060010190602001808311610da557829003601f168201915b505050505092509650965096509650965096509650919395979092949650565b60076020526000908152604090208054600182018054919291610e0490611778565b80601f0160208091040260200160405190810160405280929190818152602001828054610e3090611778565b8015610e7d5780601f10610e5257610100808354040283529160200191610e7d565b820191906000526020600020905b815481529060010190602001808311610e6057829003601f168201915b505050505090806002018054610e9290611778565b80601f0160208091040260200160405190810160405280929190818152602001828054610ebe90611778565b8015610f0b5780601f10610ee057610100808354040283529160200191610f0b565b820191906000526020600020905b815481529060010190602001808311610eee57829003601f168201915b505050600384015460048501546005860154600687015460078801805497986001600160a01b039095169793965060ff90921694509291610f4b90611778565b80601f0160208091040260200160405190810160405280929190818152602001828054610f7790611778565b8015610fc45780601f10610f9957610100808354040283529160200191610fc4565b820191906000526020600020905b815481529060010190602001808311610fa757829003601f168201915b5050505050905088565b606060068054806020026020016040519081016040528092919081815260200182805480156104de576020028201919060005260206000209081546001600160a01b031681526001909101906020018083116104c0575050505050905090565b6002546001600160a01b0316331461109c5760405162461bcd60e51b815260206004820152602b60248201527f596f752068617665206e6f20617a7574686f72697a6174696f6e20746f20736560448201526a742043616e64696461746560a81b606482015260840161031d565b6110aa600180546001019055565b60006110b560015490565b6001600160a01b03871660009081526004602090815260409091208751929350916110e8916001840191908901906111fd565b5084516110fe90600283019060208801906111fd565b50818155835161111790600383019060208701906111fd565b50600060048201556005810180546001600160a01b0319166001600160a01b038916179055825161115190600683019060208601906111fd565b50600380546001810182556000919091527fc2575a0e9e593c00f959f8c92f12db2869c3395a3b0502d05e2516446f71f85b0180546001600160a01b0319166001600160a01b038981169190911790915581546004830154600584015460405192937fd297f12b256bb8485a6013fb5e302017018123e99a0ebb20756c09e1707b4b90936111ec938c938c938c9391169060068a01906118d7565b60405180910390a250505050505050565b82805461120990611778565b90600052602060002090601f01602090048101928261122b5760008555611271565b82601f1061124457805160ff1916838001178555611271565b82800160010185558215611271579182015b82811115611271578251825591602001919060010190611256565b5061127d929150611281565b5090565b5b8082111561127d5760008155600101611282565b80356001600160a01b03811681146112ad57600080fd5b919050565b634e487b7160e01b600052604160045260246000fd5b600082601f8301126112d957600080fd5b813567ffffffffffffffff808211156112f4576112f46112b2565b604051601f8301601f19908116603f0116810190828211818310171561131c5761131c6112b2565b8160405283815286602085880101111561133557600080fd5b836020870160208301376000602085830101528094505050505092915050565b6000806000806080858703121561136b57600080fd5b61137485611296565b9350602085013567ffffffffffffffff8082111561139157600080fd5b61139d888389016112c8565b945060408701359150808211156113b357600080fd5b6113bf888389016112c8565b935060608701359150808211156113d557600080fd5b506113e2878288016112c8565b91505092959194509250565b6020808252825182820181905260009190848201906040850190845b8181101561142f5783516001600160a01b03168352928401929184019160010161140a565b50909695505050505050565b60006020828403121561144d57600080fd5b61145682611296565b9392505050565b6000815180845260005b8181101561148357602081850181015186830182015201611467565b81811115611495576000602083870101525b50601f01601f19169290920160200192915050565b60e0815260006114bd60e083018a61145d565b82810360208401526114cf818a61145d565b905087604084015282810360608401526114e9818861145d565b905085608084015282810360a0840152611503818661145d565b91505060018060a01b03831660c083015298975050505050505050565b60006020828403121561153257600080fd5b5035919050565b6000806040838503121561154c57600080fd5b61155583611296565b946020939093013593505050565b87815260e06020820152600061157c60e083018961145d565b828103604084015261158e818961145d565b905082810360608401526115a2818861145d565b608084018790526001600160a01b03861660a085015283810360c085015290506115cc818561145d565b9a9950505050505050505050565b87815260e0602082015260006115f360e083018961145d565b8281036040840152611605818961145d565b6001600160a01b038816606085015283810360808501529050611628818761145d565b60a0840195909552505090151560c09091015295945050505050565b60006101008a835280602084015261165e8184018b61145d565b90508281036040840152611672818a61145d565b6001600160a01b03891660608501526080840188905286151560a085015260c0840186905283810360e085015290506116ab818561145d565b9b9a5050505050505050505050565b600080600080600060a086880312156116d257600080fd5b6116db86611296565b9450602086013567ffffffffffffffff808211156116f857600080fd5b61170489838a016112c8565b9550604088013591508082111561171a57600080fd5b61172689838a016112c8565b9450606088013591508082111561173c57600080fd5b61174889838a016112c8565b9350608088013591508082111561175e57600080fd5b5061176b888289016112c8565b9150509295509295909350565b600181811c9082168061178c57607f821691505b602082108114156117ad57634e487b7160e01b600052602260045260246000fd5b50919050565b8054600090600181811c90808316806117cd57607f831692505b60208084108214156117ef57634e487b7160e01b600052602260045260246000fd5b8388526020880182801561180a576001811461181b57611846565b60ff19871682528282019750611846565b60008981526020902060005b8781101561184057815484820152908601908401611827565b83019850505b5050505050505092915050565b60e08152600061186660e083018a61145d565b8281036020840152611878818a61145d565b6001600160a01b038916604085015260608401889052861515608085015260a0840186905283810360c085015290506115cc81856117b3565b600082198211156118d257634e487b7160e01b600052601160045260246000fd5b500190565b60c0815260006118ea60c083018961145d565b82810360208401526118fc818961145d565b90508281036040840152611910818861145d565b606084018790526001600160a01b038616608085015283810360a0850152905061193a81856117b3565b999850505050505050505056fea26469706673582212200d109a846a67a00a4544ee5bf2e3fc39f48c388f3bc58c091e37419ee4ad183664736f6c63430008090033",
  "linkReferences": {},
  "deployedLinkReferences": {}
}